:10000000F00F00109515000093150000AD140000CE
:1000100093150000931500009315000000000000E8
:100020000000000000000000000000009315000028
:10003000931500000000000093150000010000105F
:100040009115000091150000911500009115000018
:100050009115000091150000911500009115000008
:1000600091150000911500009115000091150000F8
:1000700091150000911500009115000091150000E8
:100080009115000091150000DD0800009115000099
:1000900091150000550D000091150000911500000C
:1000A00091150000911500009115000091150000B8
:1000B00091150000911500009115000091150000A8
:1000C00010210E4A13688B43136080230C4A9B0156
:1000D00011680B43136012220A4B1A6002230A4A6A
:1000E00013600A4A13600A4A13600A4A1360012225
:1000F000094B1A60094A0A4B1A607047388204405B
:100100008080044074400440784004407C400440B7
:10011000804004409040044094400440010B0000A3
:1001200000C00140FF210E4B10B51A688A431A60C7
:100130000122802182401C68490421430A431A603D
:10014000084A800080180268002AFCDA196806480C
:10015000014019600020530001D41204900D10BD1D
:1001600000C0014010C00140FFFFFFF80123174A03
:1001700010B511689943116011681943116080220C
:1001800013491201086802430A600321114A124808
:100190001360124A1360124A1160124A0139116049
:1001A000114A136080220468D200224302600020BA
:1001B0000E4A10600E4A1360CF220E4B1A600E4B8F
:1001C000CB3A1A600D4B196010BDC0460480044044
:1001D000808004406040044000800050644004403F
:1001E000B04004404C4004406840044000100050BF
:1001F0001C4004400000044010000440040004407F
:100200000721164A30B513688B4313600123146825
:100210001C431460124A14688C43146014681C4315
:10022000146080220F4C520125682A4322608324E7
:100230000D4A050A13600D4AC0B214600C4C2560CB
:100240000C4D286080251068A84310600A4A116090
:1002500080210A4A89031160236030BDA440044014
:10026000A840044080800440988004400C800040F6
:1002700004800040008000400880004000E100E071
:1002800010B5124B124C002810D180221868920031
:1002900002431A6003220F4B19600F4B1A60802330
:1002A000DB0223600D4B023A1A6010BD80221868F1
:1002B000D20002431A600322094B1960094B1A60ED
:1002C00080231B032360023A074BEDE78080044044
:1002D00000E100E0184001401440014004400140AA
:1002E000188001401480014004800140E82370B56B
:1002F000002201259B011943060012241641544394
:100300000A4B1B192E420BD05E89094CA64203D022
:100310005C81084C9C81DC810132042AECD170BDE7
:10032000054C5C819981054CF5E7C046060000103C
:1003300092100000C0460000D21500004A400000A4
:100340000C4B0D4A1B685B02136080220B4B920220
:100350001A6001220A4B1A70C0220A4B52011A80FD
:100360000122094B52421A808022084B52011A8006
:100370007047C0461C1B0000140100106C010010E7
:100380002B01001050010010400100104A01001024
:100390000122034B1870034B1970034B1A707047FE
:1003A0004C0100105C0100105E010010234B244A38
:1003B0001B88128823499B180978234A9BB2F0B501
:1003C0001380002908D02149088821490024095FA9
:1003D000414309145B1813801E4B1B78002B09D076
:1003E0001B4B0021595E1C4B1B684B4311881B148F
:1003F0005B18138014880022184E194D19495700B4
:10040000BB5B7F5B0120DB19E3189BB25F0ABC4634
:1004100084446046BF0080007F584058DB05C01B05
:10042000400ADB0D4343DB190C275743BC460E4FF4
:10043000013267447B60042AE1D1F0BD0E01001057
:100440004E01001036010010100100103E01001096
:10045000500100102501001044010010640100103B
:100460001A010010F4150000B000001010B50328A8
:100470000AD800220F4B1A8001F0AEF8020A0E13C0
:1004800009B25A809980D98001220B4B1A7010BD95
:100490005A8099804942F6E74A0099805A80490873
:1004A000F8E703228CB262436000404258809A8091
:1004B000E9E7C0461A0100102C010010002310B516
:1004C0000549C2565C00520201336252042BF8D136
:1004D0000122024B1A7010BD640100102C010010A3
:1004E000214A10B51378042B04D153681B0A5360BA
:1004F00003231370040013784002D9008C402100BC
:10050000546801332143DBB213705160174A80B243
:100510001080174A0021525E002A01D1154A10802E
:10052000012B03D0144A1278002A04D10121114A68
:100530001080124A1170124A1278002A05D0012B3D
:1005400003D00D4B1B78002B09D100230D4A1380DB
:100550000D4A13800D4A136001220D4B1A700122BF
:100560000C4B1A7010BDC046540100101801001049
:100570002E0100100E010010620100102A0100106F
:1005800034010010280100103A010010440100104D
:10059000480100102C01001000221C4B30B51C78C3
:1005A000A24213DA9918097981421BD1D200596805
:1005B000D2B210000D000830C54001209040954097
:1005C000013801402943013C59601C701A78002A07
:1005D0000AD10F4A1378002B03D0032313700D4A5E
:1005E000137030BD0132DBE79B18DB780A4A5B02EF
:1005F0009BB21380094A0021525E002A01D1084AA9
:1006000013800122074B1A70EBE7C046540100101B
:100610002A01001048010010180100102E010010DE
:100620000E0100102C0100100122024B1880024B19
:100630001A7070474E0100102C010010094B9622D1
:10064000022809D03222032806D0012806D0002231
:100650001A80054B1A88054B1A8070479622520063
:10066000FAE7C0462E010010180100100E0100101C
:10067000024B4000C25A024B1A807047F417000028
:100680000C010010024B4000C25A024B1A80704706
:10069000F417000060010010014B18707047C0464D
:1006A000620100100122024B1860024B1A70704761
:1006B000140100102B0100100122024B1860024BA4
:1006C0001A7070476C0100102B0100100122024BC0
:1006D0001880024B1A707047120100102B01001095
:1006E0000A4B00B518700A4B032809D800F074FFB4
:1006F00002050A0C074A1A8000BD0749074A118003
:10070000074AF8E70749F9E70749F7E7000100104A
:100710004E00001023E0FFFF0B1C000076000010CD
:10072000C04600001B1C0000031C0000014B187891
:100730007047C046000100100122024B1870024BA6
:100740001A707047010100102B010010014B18783E
:100750007047C04601010010024B4000C25A024BD4
:100760001A807047201B000038010010014B1870E0
:100770007047C0463C010010014B18787047C046D6
:100780003C0100100122024B1880024B1A70704786
:10079000500100102C0100100223034019004A1ED2
:1007A00091410B4A1170012210400A4A1070002B2F
:1007B00009D1094B1B78002B05D1084B1B78002B66
:1007C00001D1074A13800122064B1A707047C046B8
:1007D000350100102401001036010010370100100F
:1007E0003E0100102B0100100223034019004A1E95
:1007F00091410B4A1170012210400A4A10700A4AB6
:100800001278002A07D1002B05D1084B1B78002B4A
:1008100001D1074A13800122064B1A707047C04667
:1008200036010010250100103501001037010010BD
:100830003E0100102C0100100223034019004A1E43
:1008400091410B4A1170012210400A4A10700A4A65
:100850001278002A07D1094A1278002A03D1002B06
:1008600001D1074A13800122064B1A707047C04617
:10087000370100102601001035010010360100106C
:100880003E0100105E010010014B18707047C04619
:1008900034010010014B18787047C0463401001035
:1008A000024B4000C25A024B1A807047201D0000C4
:1008B00040010010024B4000C25A024B1A807047A0
:1008C000201D00004A0100100122024B1870024B4B
:1008D0001A7070475D0100105E010010F7B501222B
:1008E000594B1A60594B00241C5F002C0DD05848FE
:1008F0005849038809888B421DD21B199BB2994223
:100900001FD303800123544A1370544D29780029C2
:1009100004D1534BFF261B78022B01D18026760190
:10092000504C514B2078514F042829D800F054FEE8
:100930000B0E78667B008B42E7D91B1B9BB299425A
:10094000DFD90180DEE70021198019E039784848B5
:1009500029701E8847490088891B4143C91304D068
:100960007118454889B28142EED901214942198066
:100970003B49097801293AD000293BD002293BD0D4
:10098000397828781B880831091A0B418021DBB29D
:1009900089013A4819430180002B53D1384B39491A
:1009A000394C0B80394B3A4D1988002900D150E160
:1009B000384E308809188BB23749338009780129BD
:1009C00000D179E0002973D0022900D13EE14340F3
:1009D0001BB2002B72DA3149314B0A685343314A5A
:1009E0009B185B005B080B60DBB21B0264E002211A
:1009F0002170C5E70321FBE70421F9E72A4A18889B
:100A000012884243D213801A80B21880002A01D083
:100A10008642B5D3002901D11980E9E7013929704F
:100A20000121494290E72049188809884143C913A8
:100A300004D0411A89B28E4200D285E70021198084
:100A40000131D5E7194BAAE7004001402E01001003
:100A50000E010010180100102C01001023010010DD
:100A6000620100102A01001028010010220100106C
:100A70000C010010FFFF0000FFFE000084000010CA
:100A80004CE00000040000102B01001038010010A1
:100A90005E0100103A0100103C010010040100103A
:100AA0006D4EC6413930000060010010C0460000A4
:100AB00059001BB2DB134B4085490B80854B1B78DB
:100AC000002B01D001232370834B1B78002B02D015
:100AD0000123824A1370824B1B78002B01D0012323
:100AE0002B70804E804B3078002808D17F490978E0
:100AF000002904D17E490978002900D1E0E0197865
:100B0000012900D1B1E0002900D1ABE0032900D1D7
:100B1000CCE0754B1B78002B00D0AFE06F4B1B78FF
:100B2000002B0AD000236D4A1370FFF73FFC714B76
:100B30001B78002B01D0012323702B78002B21D0B0
:100B400000232B706C4B1978654B1B78002B08D059
:100B50005F4B1A88694B1B785BB253431B14C9184F
:100B6000C9B2634B1B78002B08D00022634B9A5606
:100B7000634B1B6853431B14C918C9B2614B1878E7
:100B8000FFF7B4FB2378002B4BD00023594A237086
:100B900012785D4B1B68002A04D05C4A5C491288BD
:100BA00052189B184B4A1278002A07D0484A1188DD
:100BB000584A0020125E4A4312149B183278002AC9
:100BC00007D0544A0021515E4D4A12684A4312141C
:100BD0009B1800218B420CDB4F4A12680192013AAC
:100BE0005202934200DB6FE05B12DBB24B4A5B00C8
:100BF000995A80224A4B92021B68521A9A4200D993
:100C00001A0049085B084B43464802609A089B1A41
:100C1000E0229B0B5202D31A5B084B43424A9B0BC8
:100C200013604249424A0B6898008258414802606A
:100C30004148120C02600122D81C8240D2433F4836
:100C400001330260032B41D00B60F7BD1BB2DB13F5
:100C500032E71F4B1888002800D142E71980384B33
:100C600019802BE7264B196053E73649244F098832
:100C70003A688918344A914213DC3960002801D05F
:100C800001232370194B1B78002B02D00123134A38
:100C90001370174B1B78002B00D13FE701232B70FB
:100CA0003CE72A4939600321197032E7144F28497B
:100CB0003A680988511A0029DFDC00213960F3E71E
:100CC00019700F4B196029E7204992E70023BBE711
:100CD0003E01001035010010360100102C010010FB
:100CE00037010010240100104801001025010010F8
:100CF00026010010010100105C0100105D010010D0
:100D0000440100104C0100101401001010010010EB
:100D10000088FFFF120100101C1B0000F4190000E6
:100D20006C010010EC000010E40000103001001015
:100D3000B80100100012005080000150E000005087
:100D40003A01001040010010FEFF0000FFFF00000C
:100D50004A0100102A4B10B51B68D9B21A0615D5E6
:100D6000284ADBB21170C02B0ED007D8802B01D0DF
:100D7000902B07D10222244B1A7010BDE02BF9D022
:100D8000FE2BFAD00022F6E70122F4E71E4B1A7878
:100D9000002A08D003221878121A1A4881541A78A7
:100DA000013AD2B21A701B78002BE6D1154B1A7893
:100DB000D2B2902A08D0E02A18D0802ADDD1587803
:100DC000C0B2FFF7E9FBD8E7104A1278002A08D131
:100DD0000F4A1278002A04D15878C0B2FFF780FB7E
:100DE000CBE7587840B200F00FFAC6E798781B7846
:100DF000C0011843074BC018C010FFF715FCBCE733
:100E00000080004070010010730100107401001098
:100E1000CA01001000E0FFFF0022014B1A7070476A
:100E2000CB01001070B5304D2B78002B39D1FFF776
:100E3000A3FC8023012805D0002842D0802302286B
:100E400039D02A4B2A4E33602A4B1C78631E9C41B2
:100E5000294BE4011B78002B36D08023DB001C4398
:100E6000264B1B78002B02D12A78002A02D0802240
:100E7000920314437460002B2ED02B785A1E93419A
:100E80009C022B78002B2AD11D4B1B78002B06D0FF
:100E90001C4B1B88DB0702D580239B031C43B460DB
:100EA00070BDFFF743FC022807D0032807D00023BA
:100EB0000128C7D19023DB00C4E7134BC2E7134BD3
:100EC000C0E780239B03BDE72B78002BC8D0FFF73A
:100ED0003DFC0028C1D1C3E78024E400D1E7FFF73F
:100EE000D9FC0028D8D1DAE7CC010010800420001A
:100EF000B801001074010010CA010010C4010010F4
:100F0000750100100801001000042000800020007E
:100F100070B50C4B00211C7800231D000A48415677
:100F20009C420DDDC25C521AC2540133042BF7D12E
:100F3000FFF7C4FA0022054B1A70FFF773FF70BD6C
:100F4000C554F2E7C5010010C6010010740100107D
:100F5000002310B5034A1370034A1370FFF762FFB2
:100F600010BDC046CD010010CC01001001220B4B7A
:100F700010B51A700A4B1978002902D0FFF7C8FF84
:100F800010BD084A1078002800D0117001221A7094
:100F90000022054B1A70FFF745FFF1E7CD01001065
:100FA00074010010CA010010C50100100123054A98
:100FB00010B51370044A11784B401370FFF732FFDD
:100FC00010BDC046CB010010C401001010B5074B86
:100FD00058781B78C01A40B2400200B2FFF7D2FB2B
:100FE0000022034B1A70FFF71DFF10BDC601001051
:100FF000CA010010124B10B51B78002B13D1114BF6
:101000001978002902D0FFF7E1FF10BD0E4A1078D1
:10101000002800D0117001221A7000220B4B1A70A8
:10102000FFF700FFF1E70022074B1A70FFF78EFB76
:10103000030001205840C0B2FFF77EFBF0E7C04636
:10104000CC010010CA01001074010010C50100108D
:10105000104B10B51B78002B10D10F4C03332078A8
:10106000013018402070FFF7E9FA23780B4A5B0043
:101070009A5A0B4B1A80FFF7D5FE10BD0022094B80
:101080001A70FFF707FC030001205840C0B2FFF7B9
:10109000FBFBF0E7CC01001075010010EC1500001F
:1010A00008010010740100100C4B10B51B78002BC8
:1010B00009D1FFF761FB032301301840FFF756FB0E
:1010C000FFF7B0FE10BD0022054B1A70FFF72EFB94
:1010D000032301301840FFF703FBF1E7CC010010B8
:1010E00074010010064B10B51A00383210782C33FA
:1010F0001B7840001843C0B2FFF776FB10BDC04616
:10110000D001001010B5094B5A1CD47F1B7D640020
:101110001C43E4B2FFF70AFB002803D12000FFF7CD
:101120008BFB10BD2000FFF737FBFAE7D001001062
:10113000064B10B51A005032107844331B7840002B
:101140001843C0B2FFF7A8FA10BDC046D001001086
:1011500010B5FFF701FB10BD10B5803844B2200276
:10116000FFF7B4FA2000FFF7AFFB10BDFC2310B56A
:10117000181A4002FFF7A0FA10BD00000300044A4D
:1011800010B5106858434000FFF78CFA10BDC046F8
:101190001C1B0000054B10B51B78002B02D1FFF77C
:1011A00067FA10BDFFF77CFBFBE7C046C4010010E7
:1011B0003F2110B501408009FFF758F910BD00002C
:1011C000054B10B51B78002B02D1FFF75BFA10BD61
:1011D000FFF770FBFBE7C046C401001043B210B537
:1011E000002B07DB7F21091A00204900C9B2FFF755
:1011F000CFF810BDFA2803D88038C1B20320F6E733
:1012000080210F20F3E7000010B50C4A0C49137839
:10121000C8540133DBB213700A4A1278002A04D092
:10122000042B02D1FFF774FE10BD074A1278002A82
:10123000FAD0022BF8D1FFF7C9FEF5E7C50100107F
:10124000C601001074010010CA010010F0B50120A1
:1012500087B0002100F034F910226D4B00271A608E
:10126000FEF72EFFFEF782FF6A4A6B4B11686B4D4B
:101270000B43136090236A4A5B001168694C0B436F
:101280001360694B27606B60684B694AEB60694B80
:101290006B61694BEB61694B6B62694BEB62694B4C
:1012A0006B63694BEB63694BDA631A649A64DA64C3
:1012B000674ADA601A619A61DA61664A5A629A622A
:1012C0001A635A63644A9A67644ADA67644A5A65D9
:1012D000644A1A60644ADA66644A1A67644A1A669B
:1012E000FFF72EF8C82000F041F962493800FEF7F8
:1012F000C7FF6420FEF784FF01235F4A1360019754
:101300000297049403935D4B1B78002B16D0029B2D
:1013100001339BB20293029A594B9A4201D900F0D1
:101320001DF9584B1B78002B06D0574B019A9A4257
:1013300006D8130001339BB2019310E00293F0E74B
:10134000019B1A00FA23DB009A4208D100224F4B7E
:101350001A706A464E4B127B1A70FFF763FD013715
:101360004C4BBFB29F4207D14B4A00270021535E2E
:101370005B101380FFF756FD0026F0B20023052E08
:1013800002D90338454BC0B2049A1360FEF7CAFE77
:10139000F30005938008EB5CC4B2E41AA4101C1996
:1013A000E4B2A34206D0F300EB185B682000984734
:1013B000F300EC540136082EDFD1394B234E1C6864
:1013C000384BE4091B68A4B25B021C43A4B2039B24
:1013D000327AA3439A4208D0337200237372324B9D
:1013E0000C366408B342F2D18DE70923F356002B83
:1013F000F5DB01335BB27372082BF0D1039B1C4207
:1014000004D13368002BEAD09847E8E77368F9E71E
:101410001040044000800050B80420007801001003
:101420000080015000040150C1110000B111000002
:1014300031110000DD110000951100007D11000048
:101440006D1100005911000051110000D001001071
:1014500005110000E5100000AD0F0000190E00009E
:10146000A9100000511000006D0F0000510F000086
:10147000F50F0000400D03000C400440CB010010AC
:101480000F270000CD010010CF07000074010010ED
:10149000CC010010DC05000008010010FF0F000067
:1014A000080004400C000050540200100023024ABF
:1014B0001360024A1360FEE7008000500080015074
:1014C00030B52024C8251B4B1A68A2431A601A4A5B
:1014D0001E3C1460C046013D002DFBD10122174C7B
:1014E0002260174C22602560226025681542FCD0DE
:1014F00008438021134A10601A688A431A60012247
:1015000011490B681342FCD00321104B19600021D4
:101510000F4B1A6019601A60012219681142FCD041
:101520000C4B1A6080230C4A5B0211680B4313605A
:1015300030BDC046388204402080044040800440D2
:1015400044800440088004400C80044070800440C3
:10155000748004407880044080800440014A024B3B
:101560001A60FEE70400FA050CED00E0002200021C
:10157000044B000A01381860034B1A60034B073212
:101580001A60704714E000E018E000E010E000E0AE
:10159000FEE7FEE7002370B50A480B490B4C1A180A
:1015A0008A4207D300210A4B0A4A934206D3FFF727
:1015B0004DFEFEE7E55C01331570F0E7197001336D
:1015C000F3E7C046000000100A010010201F0000D1
:1015D0000C0100105402001002B471464908490081
:1015E000095C49008E4402BC7047C046FFFFFFFF04
:1015F000F5FFD5FFAB2402004B450200DC6702007B
:101600007B8C020047B3020062DC0200EF0703009C
:1016100013360300F5660300BF9A03009ED1030052
:10162000C00B040056490400978A0400B8CF040098
:10163000F61805008F660500C5B80500DE0F060028
:10164000266C0600EACD06007E3507003CA30700A5
:101650007F170800AD9208002D150900709F090042
:10166000EC310A001ECD0A008A710B00BD1F0C0070
:101670004CD80C00D49B0D00FD6A0E0077460F007D
:10168000FE2E1000592511005A2A1200E13E1300C7
:10169000D86314003C9A150014E316007A3F180032
:1016A00098B01900A8371B00FAD51C00EE8C1E005C
:1016B000FD5D2000B24A2200B5542400C17D260001
:1016C000B0C7280077342B0028C62D00F47E3000E8
:1016D0002F613300506F3600F3AB3900DC193D0049
:1016E000F9BB40006595440069A9480082FB4C00A5
:1016F000618F5100EE6856004F8C5B00E8FD600082
:101700005EC26600A0DE6C00E6577300B8337A0054
:10171000F3778100CA2A8900D352910005F7990016
:10172000C21EA300DDD1AC009F18B700D0FBC100E2
:10173000BD84CD0041BDD900CDAFE6007167F40096
:10174000E5EF020194551201A5A5220109EE33012E
:10175000843D4601B9A359013D316E019FF78301D4
:1017600079099B01827AB3019A5FCD01E2CEE8014B
:10177000CADF050228AB24024B4B450212DC67028C
:10178000077B8C027247B3027B62DC023EEF0703E9
:10179000F212360303F5660334BF9A03C49DD103E6
:1017A00094BF0B045056490495968A0425B8CF047B
:1017B0000EF61805E58E6605F5C4B8057CDE0F0645
:1017C000E5256C0606EACD06677E3507873BA3074D
:1017D000287F1708A0AC92082B2D150949709F0986
:1017E0001CEC310ACA1DCD0AEB89710BF9BC1F0C28
:1017F000CA4BD80C0000DF6B09603E4D1446ED3A31
:101800008836692FE7299827AE23FC210D1FC11DBB
:10181000791B8419A4180C17541602156A14511355
:101820005412DD1103119D10E00F890FE50E4B0ED0
:10183000010E7C0D3D0DC40C8C0C1F0CB70B860BE0
:101840002D0BFF0AAB0A860A350AEF09CD098A0972
:101850006A092C090E09D7089F08850851083A081B
:101860000A08F407C7079C078A0761074E072A077B
:101870001907F306D306C306A10694067306640689
:101880004A062E0621060506F905DF05D505BD0524
:10189000A7059A0585057B056505500548053205B0
:1018A000290517050E05FB04EB04E104D204CB0463
:1018B000B904B204A20494048D047E04780468047C
:1018C000620455044804410435042D0422041D0417
:1018D0000F040404FF03F403EE03E403DE03D30365
:1018E000CA03C603BB03B703AD03A8039F03960354
:1018F0009103890384037B0377036F036703620308
:101900005A0357034F034B0343033C03380332038B
:101910002F03260323031C03150312030C030803E0
:101920000203FF02F902F302EF02EA02E602E10219
:10193000DE02D902C802B802A60298028802790221
:101940006B025D0250024202350229021C020E02A5
:101950000202F601EB01E001D601CB01C001B601A4
:10196000AC01A20199018F0186017D0174016C0116
:1019700064015C0155014D0146013E013701300112
:10198000290122011B0115010E0108010201FC00C1
:10199000F700F200ED00E800E300DF00DA00D50018
:1019A000D100CC00C800C400BF00BB00B700B3002A
:1019B000AF00AB00A700A300A0009C009900950019
:1019C00092008E008B008800840081007E007A00E7
:1019D0007700740070006D006A00670064006100A9
:1019E0005F005C0059005700540052004F004D004A
:1019F0004B0049000D000E000F00100011001200F6
:101A00001300140015001700180019001B001D001A
:101A10001E00200022002400260028002B002D009C
:101A200030003300360039003C00400044004800DC
:101A30004C00510056005B00600066006C007200B4
:101A400079008000880090009800A100AB00B500EC
:101A5000C000CB00D700E400F20000010F0120011C
:101A60003101430156016A0180019701AF01C901AB
:101A7000E40100021F023F0261028602AC02D502AD
:101A800000032D035E039103C70301043E047E049B
:101A9000C3040B055805A90500065B06BC06220712
:101AA0008F0702087C08FD088609160AB00A530B46
:101AB000FF0BB60C770D440E1D0F0310F710F91134
:101AC0000A132C145F15A416FC176919EC1A851C4F
:101AD000371E0220E921EC230E265028B42A3C2D83
:101AE000EB2FC232C435F338523CE43FAB43AA4734
:101AF000E54B60501C551E5A6B5F0465F06A3271ED
:101B0000CD77C87E2686EC8D1E96C19EDAA76CB175
:101B10007DBB10C629D1C9DCF4E8ABF59400000008
:101B20000000340035003600370038003A003B0032
:101B30003C003D003F00400041004300440046009F
:101B4000470049004A004C004D004F005100520030
:101B50005400560058005A005C005E0060006200AD
:101B60006400660068006A006C006F00710073001A
:101B7000760078007B007D0080008300860088006E
:101B80008B008E009100940097009B009E00A100A6
:101B9000A500A800AC00AF00B300B700BB00BF00B9
:101BA000C300C700CB00CF00D400D800DD00E100A7
:101BB000E600EB00F000F500FA00FF0005010A0165
:101BC000100116011C01220128012E0134013B01E4
:101BD000410148014F0156015D0165016C0174012D
:101BE0007C0184018C0194019D01A601AF01B80123
:101BF000C101CA01D401DE01E801F201FD010802C0
:101C000013021E022902350241024D0259026602E8
:101C1000730280028E029C02AA02B802C702D60298
:101C2000E502F502050315032503360348035A03AD
:101C30006C037E039103A403B803CC03E003F50314
:101C40000B04210437044E0465047D049504AD049F
:101C5000C704E104FB04160531054D056A05870537
:101C6000A505C305E20502062306440666068806A6
:101C7000AB06CF06F4061A07400767078F07B807B9
:101C8000E2070C08370864089108BF08EF081F092D
:101C900050098209B609EA09200A560A8E0AC70ABB
:101CA000010B3C0B790BB70BF60B370C790CBC0C0A
:101CB000010D470D8F0DD80D220E6F0EBD0E0C0FAE
:101CC0005D0FB00F05105B10B4100E116A11C81132
:101CD00028128A12EE125413BC13271494140315FD
:101CE0007415E8155E16D7165217D0175018D3186A
:101CF0005919E2196E1AFD1A8E1B231CBB1C561DA6
:101D0000F41D961E3B1FE31F8F203F21F221AA22C4
:101D100065232424E724AE25792649271D28F528A4
:101D2000FFFFFFFF8F820A5747413934852B4D252E
:101D3000A320031D1C1ABC17C2151614A612681185
:101D400051105C0F810EBE0D0E0D6F0CDE0B5A0B89
:101D5000E10A710A0B0AAB0953090109B4086C08BE
:101D60002808E907AE07750740070E07DF06B20629
:101D700087065E0637061206EF05CD05AD058E0512
:101D80007005540538051E050505ED04D504BF048E
:101D9000A904940480046C045A04470436042504FE
:101DA00014040404F403E503D703C803BA03AD0322
:101DB000A003930387037B036F03640359034E035C
:101DC000430339032F0325031B03120309030003F5
:101DD000F702EF02E602DE02D602CE02C702BF021F
:101DE000B802B102AA02A3029C0295028F028802E5
:101DF00082027C02760270026A0265025F025A0267
:101E000054024F024A02450240023B0236023102AE
:101E10002D02280223021F021B02160212020E02CA
:101E20000A0206020202FE01FA01F601F201EF01C6
:101E3000EB01E701E401E001DD01DA01D601D301A4
:101E4000D001CD01C901C601C301C001BD01BA0164
:101E5000B701B401B201AF01AC01A901A701A4010E
:101E6000A1019F019C019A019701950192019001A6
:101E70008D018B01890186018401820180017D0130
:101E80007B01790177017501730171016F016D01AA
:101E90006B01690167016501630161015F015D011A
:101EA0005C015A01580156015501530151014F017E
:101EB0004E014C014A0149014701460144014201DA
:101EC00041013F013E013C013B013901380136012E
:101ED00035013401320131012F012E012D012B0179
:101EE0002A012901270126012501230122012101BF
:101EF00020011E011D011C011B011A0118011701FF
:101F00001601150114011301110110010F010E0139
:101F10000D010C010B010A0109010801070106016D
:101F200000232BA04CE007C8521804C0FF2149052C
:101F3000D215003A4A409B1807C8521804C0FF2126
:101F40004905D215003A4A409B1807C8521804C0E8
:101F5000FF214905D215003A4A409B1807C852187C
:101F600004C0FF214905D215003A4A409B18C046DB
:101F7000DB1407C851430914401884461B1A21A0DA
:101F800007C84A4312149B1A58430014401861466C
:101F90001BA2116090600B1C1D4883420EDC404266
:101FA00083420BDBFF20013043439B0A19A007C883
:101FB0005B181343038070479B14F3E7031CF1E79E
:101FC000836043610362C36203638363EEE70000DF
:101FD000B80000100000000000000000C400001065
:101FE0000000000000000000D00000100000000011
:101FF00000000000DC0000100000000000000000F5
:1020000000000000FFFF00000000000000000100D1
:10201000FF1F00000800044000080000003000001E
:0A2020000101000001000000FFFFB5
:04000003000015954F
:00000001FF
